{
  "contractName": "Auction",
  "abi": [
    {
      "anonymous": false,
      "inputs": [
        {
          "indexed": false,
          "internalType": "uint256",
          "name": "id",
          "type": "uint256"
        }
      ],
      "name": "AuctionInstanceCreated",
      "type": "event"
    },
    {
      "inputs": [],
      "name": "auctionInstanceCount",
      "outputs": [
        {
          "internalType": "uint256",
          "name": "",
          "type": "uint256"
        }
      ],
      "stateMutability": "view",
      "type": "function",
      "constant": true
    },
    {
      "inputs": [
        {
          "internalType": "uint256",
          "name": "",
          "type": "uint256"
        }
      ],
      "name": "auctionInstances",
      "outputs": [
        {
          "internalType": "uint256",
          "name": "id",
          "type": "uint256"
        },
        {
          "internalType": "address",
          "name": "cosigner",
          "type": "address"
        },
        {
          "internalType": "string",
          "name": "content",
          "type": "string"
        },
        {
          "internalType": "uint256",
          "name": "startingPrice",
          "type": "uint256"
        }
      ],
      "stateMutability": "view",
      "type": "function",
      "constant": true
    },
    {
      "inputs": [
        {
          "internalType": "string",
          "name": "_content",
          "type": "string"
        },
        {
          "internalType": "uint256",
          "name": "startingPrice",
          "type": "uint256"
        }
      ],
      "name": "createAuctionInstance",
      "outputs": [],
      "stateMutability": "nonpayable",
      "type": "function"
    }
  ],
  "bytecode": "0x60806040526000805534801561001457600080fd5b50610980806100246000396000f3fe608060405234801561001057600080fd5b50600436106100415760003560e01c8063555ef5c314610046578063af0c958314610079578063e08b848714610097575b600080fd5b610060600480360381019061005b91906102f0565b6100b3565b60405161007094939291906103fd565b60405180910390f35b61008161018b565b60405161008e9190610449565b60405180910390f35b6100b160048036038101906100ac9190610599565b610191565b005b60016020528060005260406000206000915090508060000154908060010160009054906101000a900473ffffffffffffffffffffffffffffffffffffffff169080600201805461010290610624565b80601f016020809104026020016040519081016040528092919081815260200182805461012e90610624565b801561017b5780601f106101505761010080835404028352916020019161017b565b820191906000526020600020905b81548152906001019060200180831161015e57829003601f168201915b5050505050908060030154905084565b60005481565b6000808154809291906101a390610684565b9190505550604051806080016040528060005481526020013373ffffffffffffffffffffffffffffffffffffffff1681526020018381526020018281525060016000805481526020019081526020016000206000820151816000015560208201518160010160006101000a81548173ffffffffffffffffffffffffffffffffffffffff021916908373ffffffffffffffffffffffffffffffffffffffff160217905550604082015181600201908161025b9190610878565b50606082015181600301559050507fdcaf4b9453dabb56fa13932f68ddf9379a812d6542b171f7565243c66d6d2a0160005460405161029a9190610449565b60405180910390a15050565b6000604051905090565b600080fd5b600080fd5b6000819050919050565b6102cd816102ba565b81146102d857600080fd5b50565b6000813590506102ea816102c4565b92915050565b600060208284031215610306576103056102b0565b5b6000610314848285016102db565b91505092915050565b610326816102ba565b82525050565b600073ffffffffffffffffffffffffffffffffffffffff82169050919050565b60006103578261032c565b9050919050565b6103678161034c565b82525050565b600081519050919050565b600082825260208201905092915050565b60005b838110156103a757808201518184015260208101905061038c565b60008484015250505050565b6000601f19601f8301169050919050565b60006103cf8261036d565b6103d98185610378565b93506103e9818560208601610389565b6103f2816103b3565b840191505092915050565b6000608082019050610412600083018761031d565b61041f602083018661035e565b818103604083015261043181856103c4565b9050610440606083018461031d565b95945050505050565b600060208201905061045e600083018461031d565b92915050565b600080fd5b600080fd5b7f4e487b7100000000000000000000000000000000000000000000000000000000600052604160045260246000fd5b6104a6826103b3565b810181811067ffffffffffffffff821117156104c5576104c461046e565b5b80604052505050565b60006104d86102a6565b90506104e4828261049d565b919050565b600067ffffffffffffffff8211156105045761050361046e565b5b61050d826103b3565b9050602081019050919050565b82818337600083830152505050565b600061053c610537846104e9565b6104ce565b90508281526020810184848401111561055857610557610469565b5b61056384828561051a565b509392505050565b600082601f8301126105805761057f610464565b5b8135610590848260208601610529565b91505092915050565b600080604083850312156105b0576105af6102b0565b5b600083013567ffffffffffffffff8111156105ce576105cd6102b5565b5b6105da8582860161056b565b92505060206105eb858286016102db565b9150509250929050565b7f4e487b7100000000000000000000000000000000000000000000000000000000600052602260045260246000fd5b6000600282049050600182168061063c57607f821691505b60208210810361064f5761064e6105f5565b5b50919050565b7f4e487b7100000000000000000000000000000000000000000000000000000000600052601160045260246000fd5b600061068f826102ba565b91507fffffffffffffffffffffffffffffffffffffffffffffffffffffffffffffffff82036106c1576106c0610655565b5b600182019050919050565b60008190508160005260206000209050919050565b60006020601f8301049050919050565b600082821b905092915050565b60006008830261072e7fffffffffffffffffffffffffffffffffffffffffffffffffffffffffffffffff826106f1565b61073886836106f1565b95508019841693508086168417925050509392505050565b6000819050919050565b600061077561077061076b846102ba565b610750565b6102ba565b9050919050565b6000819050919050565b61078f8361075a565b6107a361079b8261077c565b8484546106fe565b825550505050565b600090565b6107b86107ab565b6107c3818484610786565b505050565b5b818110156107e7576107dc6000826107b0565b6001810190506107c9565b5050565b601f82111561082c576107fd816106cc565b610806846106e1565b81016020851015610815578190505b610829610821856106e1565b8301826107c8565b50505b505050565b600082821c905092915050565b600061084f60001984600802610831565b1980831691505092915050565b6000610868838361083e565b9150826002028217905092915050565b6108818261036d565b67ffffffffffffffff81111561089a5761089961046e565b5b6108a48254610624565b6108af8282856107eb565b600060209050601f8311600181146108e257600084156108d0578287015190505b6108da858261085c565b865550610942565b601f1984166108f0866106cc565b60005b82811015610918578489015182556001820191506020850194506020810190506108f3565b868310156109355784890151610931601f89168261083e565b8355505b6001600288020188555050505b50505050505056fea264697066735822122058ab7892aec45b921a9dbd76aeebc7209f0987baec24fda438f763b33f91575464736f6c63430008110033",
  "immutableReferences": {},
  "source": "pragma solidity ^0.8.17;\r\n\r\ncontract Auction {\r\n    uint public auctionInstanceCount = 0;\r\n    \r\n    struct AuctionInstance {\r\n        uint id;\r\n        address cosigner;\r\n        string content;\r\n        uint startingPrice;\r\n    }\r\n\r\n    event AuctionInstanceCreated(\r\n        uint id\r\n    );\r\n\r\n    mapping(uint => AuctionInstance) public auctionInstances;\r\n\r\n    function createAuctionInstance(string memory _content, uint startingPrice) public {\r\n        auctionInstanceCount++;\r\n        auctionInstances[auctionInstanceCount] = AuctionInstance(auctionInstanceCount, msg.sender, _content, startingPrice);\r\n        emit AuctionInstanceCreated(auctionInstanceCount);\r\n    }\r\n}",
  "sourcePath": "C:\\Users\\82103\\OneDrive\\ \\NFTBay\\blockchain\\contracts\\Auction.sol",
  "compiler": {
    "name": "solc",
    "version": "0.8.17+commit.8df45f5f.Emscripten.clang"
  },
  "schemaVersion": "3.4.10",
  "updatedAt": "2022-11-12T01:39:19.404Z",
  "networkType": "ethereum",
  "devdoc": {
    "kind": "dev",
    "methods": {},
    "version": 1
  },
  "userdoc": {
    "kind": "user",
    "methods": {},
    "version": 1
  }
}